:03000000020B3AB6
:0C0B3A00787FE4F6D8FD758111020B8174
:100C9B00303A00313A00323A00333A00343A0035F8
:100CAB003A00363A00373A00383A00393A003130D8
:100CBB003A0031313A0031323A0031333A003134B3
:100CCB003A0031353A006B65793A00487A3A00F9C7
:100CDB0022F9E1FA8CFAD8FB69FBE9FC5CFC8FFC8E
:0F0CEB00EFFD45FD6CFDB5FDF5FE2EFE4800004A
:060E6D000110FF0111FF5E
:070E0F00120E377F0A7E007E
:100E1600E4FDFCC3ED9FEC9E5016758DFC758B189A
:100E2600D28E308FFDC28EC28F0DBD00010C80E3C5
:010E36002299
:100DE4007F887E1375A0FFC292D291D290E5A03085
:100DF400E70AEF1FAC0670011E4C70F1C290D3EFEE
:0A0E04009400EE940040028001D338
:010E0E0022C1
:100E3700AD07120DE44013C292C2918DA0D290006B
:0B0E470000C2907F057E00120E1622F4
:100E5200AD07120DE44013D292C2918DA0D2900040
:0B0E620000C2907F057E00120E1622D9
:100DB200D2B5C2937F327E00120E16D293120E1655
:100DC2007F30120E0F7F0C120E0F7F01120E377F33
:100DD200147E00120E167F06120E377F0A7E000264
:020DE2000E16EB
:0A0D3E007BFF7A0C79A1E4FD7F042D
:100D48008B088A09890AEDC4333354C044804FFFA5
:100D5800120E37AB08AA09A90A1209AF6013050ACF
:100D6800E50A7002050914F91209AFFF120E528044
:020D7800E22275
:040BC6008F088D09FE
:100BCA00E4F50FEB4A7008750A30750F018039D3C6
:100BDA00EB9400EA94004030E50F9405502A7C001B
:100BEA007D0AAF03AE021209C8ED2430FFAE0F052D
:100BFA000F740A2EF8A6077C007D0AAF03AE021214
:100C0A0009C8AA06AB0780C7E509C4333354C044F0
:100C1A00804508FF120E37E50FD39400400E150FDA
:0C0C2A00740A250FF8E6FF120E5280EB52
:010C3600229B
:100C37007BFFE4FA7401A802088002C333D8FCF4EE
:100C4700F580E58054F064F060437F017E00120E6A
:100C570016E58054F0FF64F06033EF20E408EA25DE
:100C6700E025E0FB8027EF20E509EA25E025E00401
:100C7700FB801AEF20E60AEA25E025E02402FB8044
:100C87000CEF20E708EA25E025E02403FB0ABA0475
:030C9700A3AF0305
:010C9A002237
:03000B00020D7A69
:100D7A00C0E0C083C082C0D075D000C004C005E501
:100D8A001025E024DAF582E4340CF583E493FC744C
:100D9A000193FDECF58CEDF58AB2B6D005D004D0FE
:080DAA00D0D082D083D0E032EA
:10080000758911D2AFD2A9120DB27BFF7A0C799BF8
:10081000E4FDFF120D487BFF7A0C799EE4FD7F0218
:10082000120D48120D3E7BFF7A0C79A4E4FD7F0681
:10083000120D487BFF7A0C79A7E4FD7F08120D4862
:100840007BFF7A0C79AAE4FD7F0A120D487BFF7AC0
:100850000C79ADE4FD7F0C120D487BFF7A0C79B06A
:10086000E4FD7F0E120D487BFF7A0C79B3E4FD7F27
:1008700010120D487BFF7A0C79B6E4FD7F12120D41
:10088000487BFF7A0C79B9E4FD7F14120D487BFF99
:100890007A0C79BDE4FD7F16120D487BFF7A0C7946
:1008A000C1E4FD7F18120D487BFF7A0C79C5E4FD89
:1008B0007F1A120D487BFF7A0C79C9E4FD7F1C1268
:1008C0000D487BFF7A0C79CDE4FD7F1E120D481296
:1008D0000C378F10E510F470030209A5E5106511BF
:1008E00060ED851011120DB27BFF7A0C79D1E4FD19
:1008F000FF120D48E51075F00A842430FF120E52E5
:10090000E51075F00A84E5F02430FF120E527BFFEB
:100910007A0C79D6E4FD7F08120D48E51025E02415
:10092000DAF582E4340CF583E493FE740193FBE47E
:10093000C39BFFE49EFE74019400FDE49400FCE47C
:100940007B02FAF9F8120A1DA804A905AA06AB074A
:100950007F007E107D0E7C00120CFAAB07AA06E425
:10096000FD7F0B120BC6120D3EE51025E024DAF5D3
:1009700082E4340CF5837401937002E493601FE504
:100980001025E024DAF582E4340CF583E493FC745A
:100990000193FDECF58CEDF58AD28C0208CFC28C68
:0F09A000D2B60208CF7511FFC28CD2B60208CFB3
:100B4600020800E493A3F8E493A34003F68001F2BD
:100B560008DFF48029E493A3F85407240CC8C333B0
:100B6600C4540F4420C8834004F456800146F6DF7F
:100B7600E4800B0102040810204080900E6DE47E94
:100B8600019360BCA3FF543F30E509541FFEE49374
:100B9600A360010ECF54C025E060A840B8E493A33B
:100BA600FAE493A3F8E493A3C8C582C8CAC583CA66
:100BB600F0A3C8C582C8CAC583CADFE9DEE780BE1E
:010E7300007E
:1009AF00BB010689828A83E0225002E722BBFE0246
:0909BF00E32289828A83E4932279
:1009C800BC000BBE0029EF8DF084FFADF022E4CC13
:1009D800F875F008EF2FFFEE33FEEC33FCEE9DECDC
:1009E800984005FCEE9DFE0FD5F0E9E4CEFD22ED22
:1009F800F8F5F0EE8420D21CFEADF075F008EF2F6C
:100A0800FFED33FD4007985006D5F0F222C398FD5C
:050A18000FD5F0EA22F9
:100A1D00E88FF0A4CC8BF0A42CFCE98EF0A42CFC78
:100A2D008AF0EDA42CFCEA8EF0A4CDA8F08BF0A4F6
:100A3D002DCC3825F0FDE98FF0A42CCD35F0FCEB55
:100A4D008EF0A4FEA9F0EB8FF0A4CFC5F02ECD391A
:0F0A5D00FEE43CFCEAA42DCE35F0FDE43CFC2287
:100CFA00C2D5E830E70FB2D5E4C39BFBE49AFAE425
:100D0A0099F9E498F8EC30E717B2D5120D30120AC7
:100D1A00A8E4C39BFBE49AFAE499F9E498F88003FF
:100D2A00120AA830D50DE4C39FFFE49EFEE49DFDA0
:040D3A00E49CFC2217
:100A6C0075F008758200EF2FFFEE33FECD33CDCC41
:100A7C0033CCC58233C5829BED9AEC99E5829840C4
:100A8C000CF582EE9BFEED9AFDEC99FC0FD5F0D6A1
:100A9C00E4CEFBE4CDFAE4CCF9A88222B800C1B9CB
:100AAC000059BA002DEC8BF084CFCECDFCE5F0CB09
:100ABC00F97818EF2FFFEE33FEED33FDEC33FCEB42
:100ACC0033FB10D703994004EB99FB0FD8E5E4F9FD
:100ADC00FA227818EF2FFFEE33FEED33FDEC33FCEA
:100AEC00C933C910D7059BE99A4007EC9BFCE99ADE
:100AFC00F90FD8E0E4C9FAE4CCFB2275F010EF2F23
:100B0C00FFEE33FEED33FDCC33CCC833C810D70722
:100B1C009BEC9AE899400AED9BFDEC9AFCE899F85D
:0E0B2C000FD5F0DAE4CDFBE4CCFAE4C8F922F0
:00000001FF
