:0300000002097280
:0C097200787FE4F6D8FD7581200209B9F9
:100ADD00010A00011E00011D0004190000000004A0
:100AED000B00000000021F0000020800000A0F3F6B
:090AFD00065B4F666D7D077F6FFB
:100B07007E00CFCDCFCECCCE120800740F2FF8E6E3
:060B1700F5A07FF47E0151
:0B0B1D00EF1FAC0670011E4C70F622AA
:100A8900AB07AA0675800E7C037DE8AF03AE0212A0
:100A99000B0F75800D7C037DE8AF03AE02120800D1
:100AA9007F64120B0775800B7C007D64AF03AE0277
:100AB9001208007F0A120B07758007AE02AF037C8C
:100AC900007D0A120800740F2DF8E6F5A07FF47E68
:040AD90001020B1DEE
:1009FE00758915E4F58CF58A758D3C758BAFD28CA7
:100A0E00D28ED2A9D2ABD2AFE51D64017064F51DB2
:100A1E00AF8CEFFEAD8A7C00E42DFFEC3EFEE48F42
:100A2E000E8E0DF50CF50BF58CF58AAF0AFDFE7BDF
:100A3E00FF7AFFF9F8120855EF250EF51CEE350D6D
:100A4E00F51BED350CF51AEC350BF519E4F50A7BB3
:100A5E0064FAF9F8AF1CAE1BAD1AAC191208E08E91
:100A6E001F8F20E52025E0F509E51F33F508D28C10
:0B0A7E00D28EAF09AE08120A89808DED
:03000B00020B489D
:030B4800050A3269
:03001B00020B28AD
:100B2800C0E0C0D0758D3C758BAF051EE51EB40ABC
:100B38000A751D01751E00C28CC28ED0D0D0E0325D
:10097E000209FEE493A3F8E493A34003F68001F288
:10098E0008DFF48029E493A3F85407240CC8C3337A
:10099E00C4540F4420C8834004F456800146F6DF49
:1009AE00E4800B0102040810204080900ADDE47EF2
:1009BE00019360BCA3FF543F30E509541FFEE4933E
:1009CE00A360010ECF54C025E060A840B8E493A305
:1009DE00FAE493A3F8E493A3C8C582C8CAC583CA30
:1009EE00F0A3C8C582C8CAC583CADFE9DEE780BEE8
:010B060000EE
:10080000BC000BBE0029EF8DF084FFADF022E4CCDC
:10081000F875F008EF2FFFEE33FEEC33FCEE9DECA5
:10082000984005FCEE9DFE0FD5F0E9E4CEFD22EDEB
:10083000F8F5F0EE8420D21CFEADF075F008EF2F35
:10084000FFED33FD4007985006D5F0F222C398FD26
:050850000FD5F0EA22C3
:10085500E88FF0A4CC8BF0A42CFCE98EF0A42CFC42
:100865008AF0EDA42CFCEA8EF0A4CDA8F08BF0A4C0
:100875002DCC3825F0FDE98FF0A42CCD35F0FCEB1F
:100885008EF0A4FEA9F0EB8FF0A4CFC5F02ECD39E4
:0F089500FEE43CFCEAA42DCE35F0FDE43CFC2251
:1008A40075F008758200EF2FFFEE33FECD33CDCC0B
:1008B40033CCC58233C5829BED9AEC99E58298408E
:1008C4000CF582EE9BFEED9AFDEC99FC0FD5F0D66B
:1008D400E4CEFBE4CDFAE4CCF9A88222B800C1B995
:1008E4000059BA002DEC8BF084CFCECDFCE5F0CBD3
:1008F400F97818EF2FFFEE33FEED33FDEC33FCEB0C
:1009040033FB10D703994004EB99FB0FD8E5E4F9C6
:10091400FA227818EF2FFFEE33FEED33FDEC33FCB3
:10092400C933C910D7059BE99A4007EC9BFCE99AA7
:10093400F90FD8E0E4C9FAE4CCFB2275F010EF2FEC
:10094400FFEE33FEED33FDCC33CCC833C810D707EC
:100954009BEC9AE899400AED9BFDEC9AFCE899F827
:0E0964000FD5F0DAE4CDFBE4CCFAE4C8F922BA
:00000001FF
