:03000000020800F3
:0C080000787FE4F6D8FD758120020847DF
:10098C0048656C6C6F2C20576F726C64210062751B
:10099C0074746F6E313A3000627574746F6E323AE3
:1009AC00393000627574746F6E333A3138300054DC
:1009BC006573743A203020202000546573743A20FB
:1009CC003435202000546573743A203930202000CF
:1009DC00546573743A203133352000546573743A7E
:1009EC00203138302000536572766F205465737453
:0409FC002E2E2E006D
:100BE800020A03E8C100020D0000010C000208001F
:010BF80000FC
:0A0BA300C2918FA0D2907F057E0062
:100BAD00E4FDFCC3ED9FEC9E5015E4FBFA0BBB007E
:0F0BBD00010AEB646E4A70F50DBD00010C80E477
:010BCC002206
:080C0A00C292120BA3C290225A
:080C1200D292120BA3C2902242
:100B71007F0F7E00120BAD7F38120C0A120BA97F7A
:100B810038120C0A120BA97F38120C0A7F0C120CB6
:100B91000A7F06120C0A7F01120C0A7F027E0002F4
:020BA1000BAD9A
:100BCD008F18A905E518B40105E9247F8008E518FB
:0B0BDD00B40207E924BFFF120C0A223B
:100B0600750A03750BE87A09798C7BFF7D017F01F5
:100B16008B158A168917120BCDAB15AA16A91712B3
:100B2600090C60130517E5177002051614F912096A
:080B36000CFF120C1280E222F8
:040AC8008A118B12F2
:100ACC00120BCDE4F514E514C39513502CAE11AFF5
:100ADC00127C277D101209377C007D0A120937ED34
:100AEC002430FF120C12AE11AF127C007D0A1209D9
:090AFC00258E118F12051480CD26
:010B050022CD
:100BFA00758901758CFC758A66D2A9D2AFD28C220E
:100A000020B2237F0A7E00120BAD20B21930B2FD56
:100A1000750A01750BCC120B0C7BFF7A09799A7D54
:100A2000017F02120B1620B31D7F0A7E00120BAD50
:100A300020B31330B3FD120B067BFF7A0979A47D36
:100A4000017F02120B1620B4237F0A7E00120BAD29
:100A500020B41930B4FD750A06750B04120B0C7B1B
:0D0A6000FF7A0979AF7D017F02120B16228B
:10088C000509E50970020508C39432E50894004097
:10089C006EE4F508F509050CE50CD394044003E46B
:1008AC00F50CE50C14601B14602614603114603CCC
:1008BC002404704B750A01750BCC7BFF7A0979BB4C
:1008CC008036750A02750BDA7BFF7A0979C68028A7
:1008DC00750A03750BE87BFF7A0979D1801A750AC2
:1008EC0004750BF67BFF7A0979DC800C750A0675AA
:0F08FC000B047BFF7A0979E77D017F02120B164F
:01090B0022C9
:03000B00020A6D79
:100A6D00C0E0C0F0C0D075D000C000C004C005C04B
:100A7D0006C007758CFC758A66050EE50E700205BD
:100A8D000DC39414E50D94004006750D00750E0010
:100A9D00AE0AAF0B7C007D64120937C3E50E9FE5EE
:100AAD000D9E5004D2808002C280D007D006D005A2
:0B0ABD00D004D000D0D0D0F0D0E03248
:100B3E00120B71120BFA120B067BFF7A0979A47D48
:100B4E00017F02120B167FD07E07120BAD7A097948
:100B5E00F2120B1012088C120A007F0A7E00120B82
:030B6E00AD80F166
:10080C00020B3EE493A3F8E493A34003F68001F2B9
:10081C0008DFF48029E493A3F85407240CC8C333ED
:10082C00C4540F4420C8834004F456800146F6DFBC
:10083C00E4800B0102040810204080900BE8E47E59
:10084C00019360BCA3FF543F30E509541FFEE493B1
:10085C00A360010ECF54C025E060A840B8E493A378
:10086C00FAE493A3F8E493A3C8C582C8CAC583CAA3
:10087C00F0A3C8C582C8CAC583CADFE9DEE780BE5B
:010BF90000FB
:10090C00BB010689828A83E0225002E722BBFE02E9
:09091C00E32289828A83E493221C
:10092500EF8DF0A4A8F0CF8CF0A428CE8DF0A42EE6
:02093500FE22A0
:10093700BC000BBE0029EF8DF084FFADF022E4CCA4
:10094700F875F008EF2FFFEE33FEEC33FCEE9DEC6D
:10095700984005FCEE9DFE0FD5F0E9E4CEFD22EDB3
:10096700F8F5F0EE8420D21CFEADF075F008EF2FFD
:10097700FFED33FD4007985006D5F0F222C398FDEE
:050987000FD5F0EA228B
:00000001FF
