:03000000020D0BE3
:0C0D0B00787FE4F6D8FD758121020C50C1
:050D23000000000022A9
:0F0CEF00D291D290120D23C291120D23C29022E6
:0C0D1700C291D290120D23D291020D2344
:0D0CFE00D291120D23D290120D23C290222C
:100C9200E4FEEF339291EF25E0FFD290120D23C2D2
:0B0CA20090120D230EBE08EA020CFEAB
:100CDB0048656C6C6F20576F726C64210057532002
:040CEB0021212100A2
:100C5000120A3A120C2B7BFF7A0C79DB7D047F1E83
:100C6000120B8D7BFF7A0C79E87D067F1E120B8DAF
:020C700080FE04
:1008000000000000000000005F000000000700077B
:100810000000147F147F1400242A7F2A120023135F
:1008200008646200364955225000000503000000AC
:10083000001C224100000041221C000014083E0858
:10084000140008083E0808000050300000000808A6
:100850000808080000606000000020100804020082
:100860003E5149453E0000427F40000042615149EF
:1008700046002141454B31001814127F10002745D6
:10088000454539003C4A49493000017109050300DA
:10089000364949493600064949291E0000363600C6
:1008A0000000005636000000081422410000141415
:1008B000141414000041221408000201510906001A
:1008C000324979413E007E1111117E007F4949492C
:1008D00036003E41414122007F4141221C007F49B8
:1008E000494941007F09090901003E4149497A000F
:1008F0007F0808087F0000417F4100002040413F01
:1009000001007F08142241007F40404040007F02E8
:1009100004027F007F0408107F003E4141413E00F9
:100920007F09090906003E4151215E007F0919290E
:10093000460046494949310001017F0101003F401D
:1009400040403F001F2040201F003F4038403F00F4
:1009500063140814630007087008070061514945D3
:100960004300007F414100000204081020000041C4
:10097000417F00000402010204004040404040006A
:100980000001020400002054545478007F4844447D
:100990003800384444442000384444487F003854E8
:1009A00054541800087E090102000C5252523E00B5
:1009B0007F080404780000447D4000002040443D4E
:1009C00000007F102844000000417F4000007C04AC
:1009D000180478007C080404780038444444380043
:1009E0007C1414140800081414187C007C080404F7
:1009F0000800485454542000043F444020003C4028
:100A000040207C001C2040201C003C4030403C002A
:100A10004428102844000C5050503C004464544C6E
:100A2000440000083641000000007F000000004143
:0A0A30003608000008082A1C080020
:100CAD008F1C120CEF7F78120C92E4FF120C92AF96
:070CBD001C120C92020D173E
:100CC4008F1B120CEF7F78120C927F40120C92AFA4
:070CD4001B120C92020D1728
:100C72008F1BED24B0FF120CADE51B54F0C4540FD2
:100C82004410FF120CADE51B540F4401FF020CADE2
:100C2B00E4F515AD15E4FF120C72E4F514E4FF12B4
:100C3B000CC40514E514C3948040F20515E515C3E7
:040C4B00940840DFEA
:010C4F002282
:100BCA00EB24E0F519120C72E4F51A75F006E51932
:100BDA00A42400F582E5F03408F583E582251AF5A8
:100BEA0082E43583F583E493FF120CC4051AE51AEF
:050BFA00C3940640D683
:010BFF0022D3
:100B8D008F148D158B168A178918AB16AA17A918ED
:100B9D00120C0060270518E5187002051714F912DC
:100BAD000C00FBAD15AF14120BCA74062514F51409
:0D0BBD00D3947A40D5E4F514051580CE22BE
:100A3A007FAE120CAD7F20120CAD7F10120CAD7F71
:100A4A00B0120CAD7FC8120CADE4FF120CAD7F10D2
:100A5A00120CAD7F40120CAD7F81120CAD7FFF12DC
:100A6A000CAD7FA1120CAD7FA6120CAD7FA8120CA3
:100A7A00AD7F3F120CAD7FA4120CAD7FD3120CAD2B
:100A8A00E4FF120CAD7FD5120CAD7FF0120CAD7FD6
:100A9A00D9120CAD7F22120CAD7FDA120CAD7F1287
:100AAA00120CAD7FDB120CAD7F20120CAD7F8D12C4
:0F0ABA000CAD7F14120CAD7FAF120CAD020C2BE4
:060AC9008B088A09890A6E
:060ACF00E4F50FE4F51050
:050AD500E4F512F5112B
:100ADA00E50F75F008A42511F51375F080A4AB088D
:100AEA00250AF9E50935F0FA7E00E92510F9EE3A0A
:100AFA00FA120C00D3950E400FAF117401A8070823
:080B0A008002C333D8FC421243
:100B12000511E511B408C1E50F75F080A4AB0B25F2
:100B22000DF9E50C35F0FA7E00E92510F9EE3AFAF6
:050B3200E512120C1990
:0F0B37000510E510B48097050FE50F6408708C6A
:010B4600228C
:060B47008B1D8A1E891FB0
:100B4D00E4F520AD20E4FF120C72E4F521E52075EB
:100B5D00F080A4AB1D251FF9E51E35F0FA7E00E9E6
:100B6D002521F9EE3AFA120C00FF120CC40521E50D
:0F0B7D0021C3948040D70520E520C3940840C4CD
:010B8C002246
:100C0000BB010689828A83E0225002E722BBFE02F2
:090C1000E32289828A83E4932225
:100C1900BB010689828A83F0225002F722BBFE01BA
:020C2900F322B4
:00000001FF
