:03000000020800F3
:0C080000787FE4F6D8FD758111020847EE
:0C08C1000A08C0F9A4B0999282F8809057
:0408B2007FF47E0150
:0B08B600EF1FAC0670011E4C70F62214
:10088C0075A0018509801208B275A002850A801234
:10089C0008B275A004850B801208B275A008850CEF
:0608AC00801208B280DAA0
:10080C0002088CE493A3F8E493A34003F68001F26E
:10081C0008DFF48029E493A3F85407240CC8C333ED
:10082C00C4540F4420C8834004F456800146F6DFBC
:10083C00E4800B01020408102040809008C1E47E83
:10084C00019360BCA3FF543F30E509541FFEE493B1
:10085C00A360010ECF54C025E060A840B8E493A378
:10086C00FAE493A3F8E493A3C8C582C8CAC583CAA3
:10087C00F0A3C8C582C8CAC583CADFE9DEE780BE5B
:0108CD00002A
:00000001FF
