:03000000020800F3
:0C080000787FE4F6D8FD758113020847EC
:10094D000A083F065B4F666D7D077F6F021224D349
:10092C007E00CFCDCFCECCCE12088C74082FF8E63B
:06093C00F5A07FF47E012E
:0B094200EF1FAC0670011E4C70F62287
:1008E10075B00EAE12AF137C037DE812093475B0FA
:1008F1000DAE12AF137C037DE812088C7F641209E0
:100901002C75B00BAE12AF137C007D6412088C7F86
:100911000A12092C75B007AE12AF137C007D0A12C2
:0B092100088C74082D12093A0208E14E
:10080C000208E1E493A3F8E493A34003F68001F219
:10081C0008DFF48029E493A3F85407240CC8C333ED
:10082C00C4540F4420C8834004F456800146F6DFBC
:10083C00E4800B010204081020408090094DE47EF6
:10084C00019360BCA3FF543F30E509541FFEE493B1
:10085C00A360010ECF54C025E060A840B8E493A378
:10086C00FAE493A3F8E493A3C8C582C8CAC583CAA3
:10087C00F0A3C8C582C8CAC583CADFE9DEE780BE5B
:01095D000099
:10088C00BC000BBE0029EF8DF084FFADF022E4CC50
:10089C00F875F008EF2FFFEE33FEEC33FCEE9DEC19
:1008AC00984005FCEE9DFE0FD5F0E9E4CEFD22ED5F
:1008BC00F8F5F0EE8420D21CFEADF075F008EF2FA9
:1008CC00FFED33FD4007985006D5F0F222C398FD9A
:0508DC000FD5F0EA2237
:00000001FF
