:0300000002135791
:0C135700787FE4F6D8FD7581520211D3B6
:10131E0078756568616F3A3233313132313233006C
:09132E00543D252E3166204300D8
:1012CA00E4FDFCC3ED9FEC9E5015E4FBFA0BBB005A
:0F12DA00010AEB647B4A70F50DBD00010C80E446
:0112E90022E2
:0C136300D2A27F017E001212CAC2A22298
:10133700C2A0C2A18F801213637F027E000212CA6D
:10134700D2A0C2A18F801213637F027E000212CA4D
:1012EA007F381213377F0C1213377F061213377F9A
:0B12FA00011213377F0A7E000212CAA7
:06126E008B378A38893934
:10127400ED7006EF2480FF8004EF24C0FF121337C3
:10128400AB37AA38A939120CC860130539E539708F
:0E12940002053814F9120CC8FF12134780E24D
:0112A2002229
:10130500C2A3C2A57F017E001212CAD2A520A6FDE6
:08131500C2A4AF90D2A4D2A340
:01131D0022AD
:10122200AC07E4120AA87BA17AA079A0783C120844
:10123200F8E4FBFA79A07841120A017B6F7A1279FD
:1012420003783B120A018F3A8E398D388C37E4FFCE
:10125200FE7DC87CC2AB3AAA39A938A83712080762
:0B1262007BB87A1E79C5783E120A01A5
:01126D00225E
:1011D3001212EA7BFF7A13791EE4FDFF12126E12DC
:1011E30013058F361212228F358E348D338C327560
:1011F3003AFF753B13753C2E8F408E3F8D3E8C3DE1
:101203007B007A007922120DC07B007A0079227D5F
:0F12130001E4FF12126E7FF47E011212CA80C036
:10080000020B11E86480F8E933E83360110460F00A
:10081000ED33EC337009E8FCE9FDEAFEEBFF22045E
:1008200060DED3EB9FEA9EE99DE8C2E78CF0C2F759
:1008300095F0400CE8CCF8E9CDF9EACEFAEBCFFB25
:10084000120ADC85D0F05804700320D5B3E8047098
:10085000075002B2D5020B1B92D5EC0460F7E4CC32
:10086000C0E0C398F8603B94186008400DD0E0FBEE
:10087000020AF3E4FBFAC9FC8028E830E406E4C984
:10088000FBE4CAFCE830E305E4C9CACBFCE8540742
:100890006010F8C3E913F9EA13FAEB13FBEC13FC4D
:1008A000D8F130F52FC3E49CFCEF9BFFEE9AFEEDF0
:1008B00099FDD0E0FBEF4E4D4C701222DB03020B92
:1008C00018EC2CFCEF33FFEE33FEED33FDED30E79B
:1008D000EB020AF3EF2BFFEE3AFEED39FDD0E0FB21
:1008E00050130BBB0003020B1BED13FDEE13FEEFC9
:0808F00013FFEC13FC020AF3F4
:1008F800EC4D6011E8497017ED33EC3304600DE4FA
:10090800FCFFFEFD22E933E8330470F8020B1112F4
:100918000ADC58046009E4CC2481500628500902F6
:100928000B1B284003020B18C0E0EB4A7044B98047
:1009380006D0E0FB020B07EF4E701CBD8008EBFFF2
:10094800EAFEE9FD80EBE98DF0A4FEE5F00209E19D
:10095800E9CDF9EAFEEBFFEF89F0A4FCE5F0CE89DA
:10096800F0A42EFFE435F0CD89F0A42DFEE435F097
:100978008067EF4E7005BD80D780C3EF8BF0A4ACC5
:10098800F0EE8BF0A42CFCE435F0F8EF8AF0A42C00
:10099800E5F038FCE433CB8DF0A42CFCE5F03BF813
:1009A800EE8AF0A42CFCE5F038F8E433CF89F0A403
:1009B8002CFCE5F038CF3400CE89F0A42FFFE5F009
:1009C8003EFEE433C98DF0A42EFEE5F039CD8AF061
:1009D800A42FFFE5F03EFEE43DFD33D0E0FB5007D9
:1009E8000BBB000F020B1BEC2CFCEF33FFEE33FEAE
:0609F800ED33FD020AF3DD
:1009FE00020B1BEC5D046005E859047003020B1139
:100A0E00120ADC580460F6EC4860F2EC7004FDFE4D
:100A1E00FF22C860DB2481C85009C39860025006CB
:100A2E00020B189850CAF582E9294B4A7005AB8221
:100A3E00020B0775F0007C1A7880C3EF9BEE9AEDDF
:100A4E0099400DC3EF9BFFEE9AFEED99FDE842F043
:100A5E00DC23ACF0D0E0FFD0E0FED0E0FDAB822096
:100A6E00E7101BEB60BAEC2CFCEF33FFEE33FEED20
:100A7E0033FD020AF3E803F830E705C0F075F00025
:100A8E00EF2FFFEE33FEED33FD40B830E7C280AA04
:100A9E0075F020800E75F010800575F0087D007ED3
:100AAE00007F003392D530D503120D20EC33401069
:100ABE00EF33FFEE33FEED33FDEC33FCD5F0ED22DC
:0E0ACE00E5F0247EA2D513CC92E7CDCEFF2218
:100D6400E54E243AF8E6054E227837300702783A01
:100D7400E475F001120D2E020CC82000EB7F2ED278
:100D8400008018EF540F2490D43440D4FF30040B67
:100D9400EF24BFB41A0050032461FFE54F6002152D
:100DA4004F0552E5527002055130070D7837E4754E
:100DB400F001120D2EEF020D0E0212A37403D207DE
:100DC4008003E4C207F54E8B378A388939E4F54F3E
:100DD400F551F552E54F60077F20120D9F80F575A0
:100DE40050FFC201C200C202C203C205C206C20849
:100DF400120D6DFF700D3007057F00120DB0AF525C
:100E0400AE5122B4255FC2D5C204120D6DFF24D0A9
:100E1400B40A00501A75F00A784F30D50508B6FFA9
:100E24000106C6A426F620D5047002D20380D92474
:100E3400CFB41A00EF5004C2E5D20402109DD201CF
:100E440080C6D20080C0D20280BCD2D580BAD2057E
:100E540080B47F20120D9F2002077401B54F00401B
:100E6400F1120D64FF120D9F020DD8D208D2068034
:100E740095120D64FB120D64FA120D64F94A4B705D
:100E84000679947A117BFF20022EE54F602A7E00BA
:100E94008E82758300120CE160060EEE655070F0D0
:100EA400C2D5EBC0E0EAC0E0E9C0E0EE1210FDD02C
:100EB400E0F9D0E0FAD0E0FB120CC8FF60AAEBC066
:100EC400E0EAC0E0E9C0E0120D9FD0E02401F9D0CF
:100ED400E03400FAD0E0FBE5500460DCD550D98062
:100EE40087D20280A21210E060F7E550700104126C
:100EF4000B26A950600DE550600914F550121187B6
:100F0400EF60F3EA30E702F404C3995077EAF4257A
:100F1400500430E701E404F550800D1210E060C184
:100F2400EA05502550120B26EA784DF630E701E425
:100F3400255004D55004200501141210FDE4C0E02E
:100F4400121187784DE6601320E70714F6120D8717
:100F5400802204F6D0E014C0E07F00120D87E55033
:100F64006007120D7E1550800B300503120D7ED0E4
:100F7400E0020DD8D0E00480C51210E060A0E55076
:100F840004120B26784DEAF6E550200502600104B0
:050F940024041210FD11
:100F990074FF04C0E0121187120D87E55020050285
:100FA9006003120D7ED0E0B550E87F45120D9178AF
:100FB9004DE67F2B30E7047F2DF404C0E0120D9F2E
:100FC900D0E075F00A84C0F0120D88D0E0120D88C7
:100FD900020DD8791080027908C206C2088008D2A9
:100FE900D5790A8004790AC2D5E550047002F55012
:100FF900E4FAFDFEFF120D64FC7B08200113120DBB
:1010090064FD7B1030000A120D64FE120D64FF7B33
:1010190020EC3382D592D55013C3E43000069FFFEC
:10102900E49EFEE42001039DFDE49CFCE4CBF8C2B0
:1010390001EC700CCFCECDCCE824F8F870F3801712
:10104900C3EF33FFEE33FEED33FDEC33FCEB33FB43
:10105900994002FB0FD8E9EB300105F8D0E0C4480C
:10106900B201C0E00AEC4D4E4F78207B0070C2EA15
:10107900B5500040BCC0E01210FFD0F0D0E0200114
:1010890004C4C0E0C4B201C0F0120D88D0F0D5F09C
:10109900EB020DD8120D3E0E75530FDC580E464C5F
:1010A9000E42420FE04F0FE8440FE8490E5B430F31
:1010B900EE550F1F460F7D450EE94711B4500E4AF4
:1010C9002D0E4E2E0E712B0E52230E6F20119D2ABE
:1010D9000E0A4800000E69E550B4FF037550061268
:1010E9000D64FC120D64FD120D64FE120D64FF788F
:1010F90046020B55790AA2D5200314300509B91007
:10110900020404B9080104A2D520060250010420F2
:1011190002689202B54F005034C0E07F20300319B5
:101129007F30A20272067205500F121156C202C216
:1011390006C205C2087F30800F300503E9C0E012FE
:101149000D9F300503D0E0F9D0E0B54FCC3005173D
:101159007F30B9100C120D9F7F583004077F7880BB
:1011690003B90803120D9F3002057F2D020D9F7FE1
:10117900202008F87F2B2006F322920280CF7F00DF
:10118900B4070050052446F8E6FF22286E756C6CFA
:101199002900D201120D643001F8C201784F30D50F
:1011A9000108F6020E0A2D50434958120D64240312
:1011B900B405004001E49011AF93120D90743A12F6
:0A11C9000D90D203754F04020FDCF5
:100ADC00E9D2E7C933E833F892D5EDD2E7CD33EC60
:070AEC0033FC5002B2D522D9
:100AF300EC30E7100FBF000C0EBE00080DBD000464
:100B03000BEB6014A2D5EB13FCED92E7FD2274FF0F
:100B1300FCFDFEFF22E480F8A2D574FF13FC7D8068
:030B2300E480EF7C
:100B2600F920E72824F950037907E4F42402FB1896
:100B3600DBFDE624FB5014E9600DE4F618E604F646
:0F0B4600B40A08E4F6D9F57401F60A22C2D522E2
:100B5500ED33EC3392D5FA602AB4FF33EDC2E77B6F
:100B6500FF60067A0B797AE4227A0B798320D50423
:100B75007A0B797E224E614E002B494E46002D4957
:100B85004E4600E47A08F608DAFC7B00740722E892
:100B9500C0E0ECC0E0EDC0E0EEC0E0EFC0E0EA751B
:100BA500F010A4CAABF075F04DA42BFBE435F0FCB6
:100BB500EA2410FAEB34C5FBEC34D9FCEDC2E7FFAF
:100BC50075F056A4F42411C5F0F434C58FF0A42AA9
:100BD500E5F03BE43CF620E714120C88D0E0FFD0AA
:100BE500E0FED0E0FDD0E0FC120A018014F404120E
:100BF5000C88D0E0FFD0E0FED0E0FDD0E0FC12088C
:100C0500F8D0E0F8E6FAEDD2E7CD33EC332482FBF9
:100C1500E4C3CF33CFCE33CECD33CD33DBF37B0738
:100C250075F00A846004F6081B0AE5F0F6088FF0F3
:100C3500740AA4FFACF08EF0740AA42CFEACF0503C
:100C4500010C8DF0740AA42CFDE435F0F608DBDE0A
:030C5500740722FF
:100C58003F8000004120000042C80000447A0000A4
:100C6800461C400047C35000497424004B18968026
:100C78004CBEBC205A0E1BCA6753C21C749DC5AE1D
:100C8800FB60065407601C2323120CB6EB54386033
:100C980009120CA2120CB11208F8ECF8EDF9EEFAF0
:100CA800EFCB22EB120CB180F1543803241C900CCA
:100CB80058FE93FC0EEE93FD0EEE930ECE93FF229C
:100CC800BB010689828A83E0225002E722BBFE022A
:090CD800E32289828A83E493225D
:100CE100BB010CE58229F582E5833AF583E02250C8
:100CF10006E92582F8E622BBFE06E92582F8E22212
:0D0D0100E58229F582E5833AF583E493222B
:100D0E00BB010689828A83F0225002F722BBFE01C4
:020D1E00F322BE
:0E0D2000C3E49FFFE49EFEE49DFDE49CFC22E4
:100D2E00FAE6FB0808E6F925F0F618E6CA3AF622C6
:100D3E00D083D082F8E4937012740193700DA3A344
:100D4E0093F8740193F5828883E473740293686058
:060D5E00EFA3A3A380DF58
:1012A300EFB40A07740D1212AE740A309811A8999C
:1012B300B8130CC2983098FDA899C298B811F630AB
:0712C30099FDC299F5992283
:00000001FF
