:03000000020A569B
:0C0A5600787FE4F6D8FD758120020A9D2F
:100BB10001060126014A015D018801B801EE020B1F
:100BC100024B029302BA0310037003DC041704976B
:100BD10000000404050504030302020101000101F0
:100BE10001010101020101010101010200010200F3
:100BF10000010200020304000203040001010102DA
:0C0C0100010101020101020201010202D6
:0A0C9800C100021B0000021D000055
:100C6900E4FDFCC3ED9FEC9E5015E4FBFA0BBB00C1
:0F0C7900010AEB647B4A70F50DBD00010C80E4AD
:010C88002249
:03000B00020C895B
:0F0C8900851C8C851E8A300003B28032D28032E7
:100AE2007514FFE4F97401A801088002C333D8FC2D
:100AF200F4F5A0E5A054F064F060497F0A7E00128C
:100B02000C69E5A054F0FF64F06039EF20E409E9D4
:100B120025E025E0F5148032EF20E50AE925E025FD
:100B2200E004F5148024EF20E60BE925E025E0241B
:100B320002F5148015EF20E711E925E025E02403F2
:0C0B4200F514800609E96404709BAF14F0
:010B4E002284
:020B4F008D1AFD
:100B5100EFC394104003C20022EF25E024B1F582D7
:100B6100E4340BF583E493FE740193FF7C007D0272
:100B7100120A29A804A905AA06AB077F007E107DE9
:100B81000E7C00120981C3E49FFFE49EAD07751B33
:100B910000F51C751D008D1ED200E51A75F0FAA432
:0F0BA100FFAEF0120C69C2007F327E00120C69A9
:010BB0002222
:0A0C0D008E148F158C168D178B18AE
:100C1700E4F519E519C395185023E5152519F5824B
:100C2700E43514F583E493FFE5172519F582E435D8
:0D0C370016F583E493FD120B4F051980D6CE
:010C4400228D
:040C45007F0A7E00A4
:100C4900E4FDFCC3ED9FEC9E5015E4FBFA0BBB00E1
:0F0C5900010AEB647B4A70F50DBD00010C80E4CD
:010C68002269
:100800007508FF7509FFE4F50AF50BF50CF50D7594
:100810000E01750F2CC2017510FF758901D2AFD280
:10082000A9D28C120AE28F08300127120C45740AF3
:10083000250BF50BE4350AF50AFEAF0BE4FCFD7B56
:10084000607AEAF9F8C3120A1350D8E4F50AF50BF6
:1008500080D1E508F47003020915E5086509704BBD
:10086000C3E50B950DFFE50A950CFEC3EF950FEE62
:10087000950E5037E5087010D201F5107E0B7FD130
:100880007C0B7DDF7B0E8014E508B40117D2017567
:1008900010017E0B7FED7C0B7DFD7B10120C0DC2D9
:1008A000017510FFE4F50CF50D8006850A0C850B2B
:0B08B0000DE508C394024058200155DC
:1008BB00850811E51125E024B1F582E4340BF583AD
:1008CB00E493FE740193FF7C007D02120A29A804B5
:1008DB00A905AA06AB077F007E107D0E7C001209CE
:1008EB0081C3E49FF513E49EF512751B00F51C758F
:1008FB001D0085131ED200120AE2EFB50805120C7B
:05090B004580F4C2006C
:1009100085080980057509FFC200120C45740A2577
:100920000BF50BE4350AF50AFEAF0BE4FCFD7B602A
:100930007AEAF9F8C3120A134003020823E4F50A1D
:05094000F50B02082385
:100A6200020800E493A3F8E493A34003F68001F2A2
:100A720008DFF48029E493A3F85407240CC8C33395
:100A8200C4540F4420C8834004F456800146F6DF64
:100A9200E4800B0102040810204080900C98E47E50
:100AA200019360BCA3FF543F30E509541FFEE49359
:100AB200A360010ECF54C025E060A840B8E493A320
:100AC200FAE493A3F8E493A3C8C582C8CAC583CA4B
:100AD200F0A3C8C582C8CAC583CADFE9DEE780BE03
:010CA2000051
:1009450075F008758200EF2FFFEE33FECD33CDCC69
:1009550033CCC58233C5829BED9AEC99E5829840EC
:100965000CF582EE9BFEED9AFDEC99FC0FD5F0D6C9
:10097500E4CEFBE4CDFAE4CCF9A88222B800C1B9F3
:100985000059BA002DEC8BF084CFCECDFCE5F0CB31
:10099500F97818EF2FFFEE33FEED33FDEC33FCEB6A
:1009A50033FB10D703994004EB99FB0FD8E5E4F925
:1009B500FA227818EF2FFFEE33FEED33FDEC33FC12
:1009C500C933C910D7059BE99A4007EC9BFCE99A06
:1009D500F90FD8E0E4C9FAE4CCFB2275F010EF2F4B
:1009E500FFEE33FEED33FDCC33CCC833C810D7074B
:1009F5009BEC9AE899400AED9BFDEC9AFCE899F886
:0E0A05000FD5F0DAE4CDFBE4CCFAE4C8F92218
:100A1300EB9FF5F0EA9E42F0E99D42F0EC6480C85A
:060A230064809845F022FA
:100A2900EC8EF0A4CCC5F0CCCDF8EFA4CEC5F02D5A
:100A3900FDE43CFCE8A42EC8C5F03DFDE43CFCEF18
:0D0A4900A4FFE5F028FEE43DFDE43CFC22A6
:00000001FF
