:03000000020800F3
:0C080000787FE4F6D8FD758109020847F6
:0608D50001080101090009
:1008C400758901D2A9D2AFD28C758CFC758A188037
:0108D400FE25
:03000B0002088C5C
:10088C00C0E0C0D0758CFC758A180509E508B40168
:10089C000FE509C394024008C2A075090075080051
:1008AC00E508700FE509C394034008D2A075090050
:0808BC00750801D0D0D0E03234
:10080C000208C4E493A3F8E493A34003F68001F236
:10081C0008DFF48029E493A3F85407240CC8C333ED
:10082C00C4540F4420C8834004F456800146F6DFBC
:10083C00E4800B01020408102040809008D5E47E6F
:10084C00019360BCA3FF543F30E509541FFEE493B1
:10085C00A360010ECF54C025E060A840B8E493A378
:10086C00FAE493A3F8E493A3C8C582C8CAC583CAA3
:10087C00F0A3C8C582C8CAC583CADFE9DEE780BE5B
:0108DB00001C
:00000001FF
