:03000000020A0FE2
:0C0A0F00787FE4F6D8FD75812002090113
:10098E000018385878181818181818181818181831
:10099E000000000000000000000000000000000049
:0D09AE007F027E001209BBD2807F027E0016
:0E09BB00EF1FAC0670011E4C60030080F3229B
:1009E400D281D2807F057E001209BBC2817F057E41
:0709F400001209BBC28022C2
:1009FB00C281D2807F057E001209BBD2817F057E2A
:040A0B00000209BB21
:10086F00E50BC43354E0248EF582E43409F583E5B7
:0C087F00822AF582E43583F583E493FFC0
:02088B00AD07B7
:10088D00E4FBED30E703D38001C392811209AEC2C0
:10089D00801209B7ED25E0FD0BBB08E6D2811209E8
:0C08AD00AEA2819200C2801209B7A20026
:0108B900221C
:100800001209E47F7812088BE4FF12088B7FAE1286
:10081000088B7FD512088B7F8012088B7FA8120867
:100820008B7F3F12088B7FD312088BE4FF12088B5B
:100830007F4012088B7F8D12088B7F1412088B7FEC
:100840002012088BE4FF12088B7FA012088B7FC058
:1008500012088B7FDA12088B7F1212088B7F8112AD
:0F086000088B7FCF12088B7FAF12088B0209FB2A
:10096200AA07A9051209E47F7812088BE4FF12088E
:100972008BE944B0FF12088BEA540FFF12088BEA8E
:0C098200C4540F4410FF12088B0209FB44
:10093300E4F50AAD0AE4FF1209621209E47F7812B2
:10094300088B7F4012088BE4FAE4FF12088B0ABA83
:0E09530080F71209FB050AE50AC3940840D597
:010961002273
:1008BA00750A387F008F0B7D02AF0A12096212098E
:1008CA00E47F7812088B7F4012088BE4FA12086FD3
:1008DA000ABA10F91209FB7D03AF0A12096212095A
:1008EA00E47F7812088B7F4012088B7A1012086F07
:0708FA000ABA20F90209FB14
:1009C900C3EE648094804012D3EF9409EE6480945E
:0A09D900805007EF2430FF1208BA27
:0109E30022F1
:1009010075080075090A120800120933C3E5086465
:10091100809480401B120933AF09AE081209C97FC8
:10092100407E421209BBE509150970E0150880DC1B
:0209310080FE46
:00000001FF
