:03000000020800F3
:0C080000787FE4F6D8FD758111020847EE
:0C08C3000A08C0F9A4B0999282F8809055
:0708B1001208D07FF47E0164
:0B08B800EF1FAC0670011E4C70F62212
:0C08D0008F993099FDC299C2A0D2A022DD
:10088C00E4F598759001AF081208B1759002AF09A4
:10089C001208B1759004AF0A1208B1759008AF0B2D
:0508AC001208B180DE1E
:10080C0002088CE493A3F8E493A34003F68001F26E
:10081C0008DFF48029E493A3F85407240CC8C333ED
:10082C00C4540F4420C8834004F456800146F6DFBC
:10083C00E4800B01020408102040809008C3E47E81
:10084C00019360BCA3FF543F30E509541FFEE493B1
:10085C00A360010ECF54C025E060A840B8E493A378
:10086C00FAE493A3F8E493A3C8C582C8CAC583CAA3
:10087C00F0A3C8C582C8CAC583CADFE9DEE780BE5B
:0108CF000028
:00000001FF
